:100000000100000053450708500EFB3C5826000035
:020010000400EA
:100012000E240424052406240724082409240A247F
:100022000B240C2404B085B00660076008B189B1C6
:100032000A600B600C600060016210B8014C22582B
:10004200126003B430B90144055820BE0C444885FF
:10005200D995095820BE074003B4338A88B183B4C6
:10006200B39A89B100582CC403B4B3E888B183B4FD
:1000720033D889B103B533D88AB183B533D88BB1BC
:0800820080A0DA5B00B40FB7A7
:00000001FF
