:100000000100000053450708500EFB3C5826000035
:020010000400EA
:10001200765C915C04B185B10660076002600360A2
:100022000860096000580C62002400B680BC00041D
:10003200014C3758805C072487B4F9A007041B6081
:100042000A600024012400B581B5CCC500BE0D4470
:1000520010BC0B440104000402B083B000600160D4
:100062004480D5906691F79114580024012400B57C
:1000720081B5CCC510BE0D4400BC0B440104000484
:1000820002B083B0006001604488D5986699F79900
:100092000058C8C5F7E866D855D844D800B281B22E
:1000A200C25B535C0FB7475CE26023A12020312082
:1000B2004C5C0FB7405CE66067A16400750000B25B
:1000C20081B2D26F327433603A6CEA796B62048522
:1000D20085959F5FFA6FFA7FFB6FFB7FD0BD014072
:1000E200065840BD0140035808600960025808B232
:1000F20089B268207920016000B4275C0FB71B5CCD
:10010200026003605660E0625071CD5F0460005887
:100112000560A0BA0D4440BB0B4801400958CA5FB4
:1001220003B00761781230BC0144F25B1260F05BED
:1001320000600B5C0FB7042405240624072408245E
:1001420009240A240B240C240FB70C040B040A0400
:0E0152000904080407040604050404040FB79A
:00000001FF
